:100000000C948E040C94D5040C94D5040C94D50453
:100010000C94D5040C94D5040C94D5040C94D504FC
:100020000C94D5040C94D5040C9435280C94F12729
:100030000C9408300C94D5040C94D5040C94D5047D
:100040000C94D5040C94D5040C94D5040C94D504CC
:100050000C94D5040C94E42F0C94D5040C94D50482
:100060000C94D5040C94D5040C94D5040C94D504AC
:100070000C94D5040C94D5040C94D5040C94D5049C
:100080000C94D5040C94D5040C94D5040C94D5048C
:100090000C94D5040C94D50400010000FFFF00006F
:1000A000000001010000FFFF00000000020100004D
:1000B000FFFF0000000003010000FFFF0000000040
:1000C00004010000FFFF0000000005010000FFFF29
:1000D00000000000000000FFFFFF0000000005011D
:1000E0000902A10185020901A100050919012905DB
:1000F00015002501950575018102950175038101A2
:100100000501093009311581257F950275088106A1
:1001100009381581257F950175088106050C0A3877
:10012000021581257F950175088106C0C00501096A
:1001300080A101850319012AB700150126B7009592
:100140000175108100C0050C0901A1018504190188
:100150002AA002150126A002950175108100C00594
:10016000010906A1018505050719E029E715002504
:10017000019508750181020507190029EF15002571
:100180000195F0750181020508190129059505758C
:10019000019102950175039101C00660FF0961A1FB
:1001A000010962150026FF00952075088102096388
:1001B000150026FF00952075089102C0050109066B
:1001C000A101050719E029E715002501950875012A
:1001D00081029501750881010507190029FF1500A5
:1001E00026FF009506750881000508190129059567
:1001F0000575019102950175039101C0000101018E
:1002000001010101010102020202020202020203D3
:1002100003030303030303040404040404040505A3
:100220000505050606060606070707070708080866
:1002300008090909090A0A0A0B0B0B0C0C0C0D0D15
:100240000D0E0E0E0F0F0F101011111112121313AD
:100250001414151516161717181819191A1A1B1B26
:100260001C1D1D1E1E1F2020212222232424252682
:1002700026272829292A2B2C2D2D2E2F30313232BA
:10028000333435363738393A3B3C3D3E3F404142C6
:10029000434445464748494A4C4D4E4F50515354AC
:1002A000555658595A5B5D5E5F6162646566686960
:1002B0006B6C6D6F7072737577787A7B7D7E8082E0
:1002C000838587888A8C8E8F91939596989A9C9E29
:1002D000A0A2A3A5A7A9ABADAFB1B3B5B7BABCBE39
:1002E000C0C2C4C6C9CBCDCFD1D4D6D8DBDDDFE206
:1002F000E4E7E9EBEEF0F3F5F8FAFDFFFFAA7F552E
:10030000402223252628292A2C2D2F30323335361A
:10031000383A3B3D3E4042434547494A4C4E505196
:10032000535557595A5C5E6062646668696B6D6FBD
:1003300071737577797B7D7F81838587898A8C8EC0
:1003400090929496989A9C9E9FA1A3A5A7A8AAACC8
:10035000AEAFB1B3B4B6B8B9BBBCBEBFC1C2C3C502
:10036000C6C7C9CACBCCCDCED0D1D2D2D3D4D5D6A4
:10037000D7D7D8D9D9DADADBDBDBDCDCDCDCDCDDD7
:10038000DDDDDDDCDCDCDCDCDBDBDBDADAD9D9D8BB
:10039000D7D7D6D5D4D3D2D2D1D0CECDCCCBCAC953
:1003A000C7C6C5C3C2C1BFBEBCBBB9B8B6B4B3B182
:1003B000AFAEACAAA8A7A5A3A19F9E9C9A9896941D
:1003C00092908E8C8A89878583817F7D7B797775F2
:1003D00073716F6D6B6968666462605E5C5A5957D1
:1003E000555351504E4C4A4947454342403E3D3B90
:1003F0003A3836353332302F2D2C2A29282625231A
:10040000221050105011503A003B003C003D003E7D
:10041000003F000F00210015000F001F00150040D5
:1004200000410042004300440045000F0022001537
:10043000000F002000150004001600070009000A44
:10044000000B000F00230015000000000000005208
:100450000025005100C95C2600CA5C0F002400156D
:100460000010501050125001000100010001000165
:100470000001000100010001000100010001000174
:100480000001000100010001000100010001000164
:100490000001000100010001000100010001000154
:1004A0000001000100010001000000000000000147
:1004B0000001000100010001000100010001000134
:1004C0000011501050135001000100010001000103
:1004D0000001000100010001000100010001000114
:1004E0000001000100010001000100010001000104
:1004F00000010001000100010001000100010001F4
:1005000000010001000100010000000000000001E6
:1005100000010001000100010001000100010001D3
:1005200000125010501450010001000100010001A0
:1005300000010001000100010001000100010001B3
:1005400000010001000100010001000100010001A3
:100550000001000100010001000100010001000193
:100560000001000100010001000000000000000186
:100570000001000100010001000100010001000173
:10058000001350105015500100010001000100013E
:100590000001000100010001000100010001000153
:1005A0000001000100010001000100010001000143
:1005B0000001000100010001000100010001000133
:1005C0000001000100010001000000000000000126
:1005D0000001000100010001000100010001000113
:1005E00000145010501650010001000100010001DC
:1005F00000010001000100010001000100010001F3
:1006000000010001000100010001000100010001E2
:1006100000010001000100010001000100010001D2
:1006200000010001000100010000000000000001C5
:1006300000010001000100010001000100010001B2
:100640000015501050175001000100010001000179
:100650000001000100010001000100010001000192
:100660000001000100010001000100010001000182
:100670000001000100010001000100010001000172
:100680000001000100010001000000000000000165
:100690000001000100010001000100010001000152
:1006A0000016501050185001000100010001000117
:1006B0000001000100010001000100010001000132
:1006C0000001000100010001000100010001000122
:1006D0000001000100010001000100010001000112
:1006E0000001000100010001000000000000000105
:1006F00000010001000100010001000100010001F2
:1007000000175010501950010001000100010001B4
:1007100000010001000100010001000100010001D1
:1007200000010001000100010001000100010001C1
:1007300000010001000100010001000100010001B1
:1007400000010001000100010000000000000001A4
:100750000001000100010001000100010001000191
:10076000001850105010500100010001000100015C
:100770000001000100010001000100010001000171
:100780000001000100010001000100010001000161
:100790000001000100010001000100010001000151
:1007A0000001000100010001000000000000000144
:1007B0000001000100010001000100010001000131
:1007C0000000000000000000000000000000000029
:1007D00000000000007E0F00D4FFFFFFC7000000F4
:1007E0007800000000000000002A2B280000000014
:1007F00000000000000000000000000029000000D0
:10080000002C1E3420212224342627252E362D3775
:1008100038271E1F202122232425263333362E3746
:10082000381F0405060708090A0B0C0D0E0F1011DE
:1008300012131415161718191A1B1C1D2F313023EB
:100840002D350405060708090A0B0C0D0E0F1011B3
:1008500012131415161718191A1B1C1D2F313035B9
:100860004CD400CA00C000B600AC00A20098000042
:100870000032190A00047F3F1F6432146432147876
:100880003C1E1E140A0509025B00030100A0FA09C0
:1008900004000001030101000921110100012240AF
:1008A000000705810308000A090401000203000093
:1008B0000009211101000122220007058203200006
:1008C00001070503032000010904020001030000E1
:1008D0000009211101000122BC000705840320004A
:1008E0000A12011001000000084B4115000100012F
:1008F00002030104033000000008034100390065D1
:100900000000001203410074006C0061006E00746E
:1009100000690073000000040309040011241FBED5
:10092000CFEFD0E1DEBFCDBF04B603FE27C080917C
:10093000CB079091CC07A091CD07B091CE0787301F
:10094000904BA740B04BD1F41092CB071092CC073C
:100950001092CD071092CE0714BE84B7877F84BF54
:100960000FB6F894A895809160008861809360002C
:10097000109260000FBEE0E0F8E7099527E0A6ECD2
:10098000B1E001C01D92AB3CB207E1F711E0A0E07D
:10099000B1E0E0EDF3E602C005900D92A63CB10790
:1009A000D9F70E9423290C949B310C940000E8EDA8
:1009B000F0E080818C7F80831092E2001092DA0058
:1009C0001092E100A0EEB0E08C9181608C93808168
:1009D0008F77808319BCA7EDB0E08C918E7F8C93CC
:1009E00080818F7E80831092910708952091E4008A
:1009F0003091E50095E6A9012091EC00822F8170ED
:100A000020FF06C08091E80080FF06C080E00895C6
:100A10002091E80022FD1AC08091C607882389F042
:100A2000853089F08091EB0085FD0FC02091E400B6
:100A30003091E50042175307F9F29150E1F684E056
:100A4000089582E0089583E0089581E00895EF928B
:100A5000FF920F931F93CF937C018B010E94F604AA
:100A6000C82F811117C08091E80085FD0BC08091CF
:100A7000E8008E778093E8000E94F604882399F3BB
:100A8000C82F08C0F70181917F018093F1000150C8
:100A9000110949F78C2FCF911F910F91FF90EF9083
:100AA0000895CF93FC018091C607843001F5C09171
:100AB000E900CF702091EC00922F917020FD90E81A
:100AC000C92B82E08093E9008091E80080FF0CC090
:100AD00050E040E060E270E0CF010E942705809185
:100AE000E8008E778093E800CF70C093E900CF9143
:100AF00008958091BE0787FF13C08091E80082FFB0
:100B000006C08091E8008B778093E80004C0809154
:100B1000C6078111F2CF08958091C6078823D9F3C3
:100B20008091E80080FFF8CF8091E8008E77ECCFCD
:100B3000982F9093E900242F762F50E0891731F0F9
:100B40007091EC002091ED005091F00021FD07C064
:100B50009F5F973071F78093E90081E008953091AD
:100B6000EB003E7F3093EB003091ED003D7F309302
:100B7000ED003091EB0031603093EB007093EC00AE
:100B80002093ED005093F0002091EE0027FDE0CF80
:100B900080E00895CF92DF92EF92FF920F931F9320
:100BA000CF93DF93C8EDD0E088818F7E8883E7ED17
:100BB000F0E080818160808381E08093910788816B
:100BC0008C7F888302EE10E0D8011C921092DA002C
:100BD00081EEC82ED12CD6011C9288818F77888314
:100BE00088818068888388818F7D88838081806800
:100BF000808319BC1092C6071092BD071092BC07E3
:100C00001092BB0790EEE92EF12CF70180818B7FCB
:100C1000808388818160888342E060E080E00E9478
:100C20009805D6018C918E7F8C93F801808181602C
:100C30008083808188608083D7018C918E7F8C93A4
:100C4000888180618883DF91CF911F910F91FF9000
:100C5000EF90DF90CF900895FC018091C4079091B0
:100C6000C50786179707A0F06115710529F49091C3
:100C7000E8009E779093E80090E06115710551F4CB
:100C8000911108C08091E80082FF33C080E0089590
:100C9000BC01F2CF8091C6078823B9F18530B9F144
:100CA0008091E80083FD2FC08091E80082FDEACFAB
:100CB0008091E80080FFE1CF2091F2003091F300B5
:100CC0006115710519F02830310558F091E0283090
:100CD000310509F090E02091E8002E772093E8009C
:100CE000CCCF81918093F100615071092F5F3F4F0C
:100CF000E7CF8091C607882341F0853041F080918D
:100D0000E80083FFBFCF81E0089582E0089583E08B
:100D100008958091C607843011F482E0089581E03F
:100D20000895089580919A07089590917407803FDF
:100D300041F48091750787FD10927507992371F032
:100D40000895813F29F4809175071816ACF3F6CF0A
:100D5000823F81F497FFF2CF10927407809175075C
:100D600090917607892B90917707892B49F71092FC
:100D70006F070895833F19F4191674F3DFCF893F85
:100D800039F4809176071816CCF610927607D6CFF4
:100D90008A3F29F48091760787FFD0CFF6CF8B3F2B
:100DA00039F48091770787FFC9CF10927707C6CFB4
:100DB0008C3F29F4809177071816BCF3BFCF843F8E
:100DC00031F4809173078E7F80937307B7CF853F8F
:100DD00021F4809173078D7FF7CF863F21F48091B6
:100DE00073078B7FF1CF873F21F480917307877F53
:100DF000EBCF883F21F4809173078F7EE5CF8D3F45
:100E000031F4809139078E7F8093390797CF8E3FD9
:100E100021F4809139078D7FF7CF8F3F09F08ECF76
:100E2000809139078B7FF0CF8091390780FD16C004
:100E300081FD16C082FD16C080916F078823A1F046
:100E4000883280F428E0829FC001112468E270E0BB
:100E50000E945D30862F672B39F0089582E0089557
:100E600084E0089588E0089581E00895809139072D
:100E700080FD14C081FD14C082FD16C080916F07F3
:100E8000882381F0843180F422E3829FC001112401
:100E900064E170E00E945D30862F08958CE0089533
:100EA00089E1089585E0089582E30895803F31F453
:100EB0000E9436078195809375070895813F19F444
:100EC0000E943607F8CF823F31F40E9436078195A1
:100ED000809374070895833F19F40E943607F8CF72
:100EE000893F29F40E9414078093760708958A3F6A
:100EF00021F40E9414078195F7CF8B3F31F40E94B3
:100F0000140781958093770708958C3F19F40E9408
:100F10001407F8CF843F31F4809173078160809388
:100F200073070895853F21F4809173078260F7CF9E
:100F3000863F21F4809173078460F1CF873F21F4CD
:100F4000809173078860EBCF883F21F4809173070D
:100F50008061E5CF8D3F31F48091390781608093C6
:100F6000390708958E3F21F4809139078260F7CFC9
:100F70008F3FB9F7809139078460F1CF9C014FB75B
:100F8000F89480918D0790918E07A0918F07B09172
:100F900090074FBF821B930B08952FB7F894809151
:100FA0008D0790918E07A0918F07B09190072FBF6A
:100FB0000895E0914707F0914807309749F082E0A3
:100FC000809372070480F581E02D82E797E0099510
:100FD0000E94CD0790936E0780936D0708958091CE
:100FE000340781111092340708958091330790914E
:100FF0003207892B90913107892B8093C6019091FC
:1010000034079923A1F0892B8093C60180911F0199
:10101000882341F18091420787FF24C08EE1E8ECEC
:10102000F1E090E0815000F591110E94EF07E0910E
:101030004707F09148073097E1F080911F0188231E
:1010400059F08091420787FF07C08091C6018093C5
:10105000C70185E08093C6010280F381E02D86EC14
:1010600091E0099486E0DBCF21912223D9F29F5FA2
:10107000D9CF089590911F019923D1F09091420703
:1010800097FF16C0E82FE695E695E695EE31E0F479
:10109000F0E0EA53FE4F282F277081E090E001C076
:1010A000880F2A95EAF78095928189238283089593
:1010B000E8ECF1E09191891303C0DF0111971C92D4
:1010C00091E0EE3CF907B1F7089590911F01992343
:1010D000C1F09091420797FF14C0E82FE695E6957E
:1010E000E695EE31F8F4F0E0EA53FE4F877021E028
:1010F00030E001C0220F8A95EAF78281822B828339
:101100000895A8ECB1E0EFEF90E02D91821751F037
:10111000EF3F19F4211101C0E92F9F5F9630A9F725
:10112000EF3F09F408950E2E000CFF0BEA53FE4F1B
:10113000E6CF2CE0929F800D1124982F9770869512
:101140008695869525E0829FF0011124EE5EF84F8A
:1011500050E040E080E0219130E0092E02C0369559
:1011600027950A94E2F721703327042E01C0220F3D
:101170000A94EAF7822B4F5F5F4F4530510559F7CC
:1011800008952CE0929F800D1124982F977041E0D4
:1011900001C0440F9A95EAF786958695869595E065
:1011A000899FF0011124EE5EF84F90E080E070E03E
:1011B0005191DF0111979B01082E02C036952795AA
:1011C0000A94E2F7217021952527242325272C93C3
:1011D00001968530910561F70895809111079091EE
:1011E000E006981301C008958F5F8770FACF8823B7
:1011F00041F08095909133078923809333070C94B5
:10120000F5070895882339F090913307982B909330
:1012100033070C94F50708952091D0033091D10342
:101220002817390771F09093D1038093D003E09190
:101230004707F0914807309721F00084F185E02DB1
:10124000099408952091CE033091CF0328173907D0
:1012500071F09093CF038093CE03E0914707F09114
:101260004807309721F00680F781E02D0994089512
:1012700010923207109231070E94F50786E0E2E7EC
:10128000F7E0DF011D928A95E9F710926F0710923F
:1012900039070E94D90790E080E00E94220990E07F
:1012A00080E00C940C0960933507709336078093A7
:1012B0003707909338070C943809E0914707F0916D
:1012C0004807309721F00190F081E02D099480E0EB
:1012D0000895882309F459C0823871F40E945D0989
:1012E00081FF53C089E30E9465080E94F50789E3E6
:1012F0000E943A080C94F507833859F40E945D095E
:1013000080FF43C083E50E9465080E94F50783E5DE
:10131000EFCF843859F40E945D0982FF36C087E41C
:101320000E9465080E94F50787E4E2CF9CEF980FC2
:10133000913AF0F290E2980F983088F4877021E0AB
:1013400030E0A90102C0440F551F8A95E2F7CA0197
:10135000809590913307892380933307CBCF9BE50A
:10136000980F933020F490E080E00C94220998E5E7
:10137000980F973120F490E080E00C940C09803FA6
:1013800020F00E9495060C94D9070895FA01811166
:1013900001C0FB01099480919207982F9E7F61F410
:1013A000817082608093920780919507853B18F049
:1013B00084EB8093950708958635B0F3817084653A
:1013C000F1CFAF92BF92DF92EF92FF920F931F93F4
:1013D000CF93DF93182F062FE901453B08F044EB2C
:1013E000E42FF0E0E450FE4F011110C0E4915E2FB5
:1013F0004E2F4983E8835A83DF91CF911F910F913C
:10140000FF90EF90DF90BF90AF900895202F30E0D5
:101410004491D42EE42EF12C56E0159FC0011124E6
:10142000EFEFF0E0BF010E944930812F90E0880F7C
:10143000991F55E5569FD001579FB00D11248A1B67
:101440009B0B982F990F890F5F01A21AB30AAE9CCC
:10145000D001AF9CB00DBE9CB00D11245B2F089F36
:1014600080011124012F11275F01A01AB10AAE9C3F
:101470008001AF9C100DBE9C100D11245F01A81AB5
:10148000B108A29EC001A39E900DB29E900D1124A2
:10149000892F9927E81BF90BEE9DC001EF9D900D58
:1014A000FE9D900D1124E92F62307105A1F050F4DA
:1014B0006115710509F49DCF6130710581F0EB2F45
:1014C000512F97CF6430710569F080F06630710557
:1014D00009F48FCFF4CFE42F4B2F592F8ACFE42F6D
:1014E000412F87CFEB2F542F492F83CF4B2F5D2DCB
:1014F000E12F7FCF9091420792FF06C0282F2871DD
:101500002830F9F4877F846093FF06C0282F287164
:101510002831F1F4877E84612091430720FF06C0C3
:10152000382F38713830D9F4877F816021FF06C0A9
:10153000282F28712831D1F4877E816194FD877E20
:101540000895282F24712430F9F68B7F8860DCCF32
:10155000282F2471243101F78B7E8861DDCF382F4D
:101560003171313019F78E7F8860E0CF282F2171DB
:10157000213121F78E7E8861E1CFCF93DF9300D0B8
:101580000F92CDB7DEB79091C607943011F58983DD
:101590007B836A839093E9008FEF9091E8008150FC
:1015A00095FD06C095ED9A95F1F700008111F5CFF4
:1015B0008091E80085FF0DC050E040E063E070E0FE
:1015C000CE0101960E9427058091E8008E778093D6
:1015D000E8000F900F900F90DF91CF910895CF9377
:1015E000DF93EC010E948906823011F0843031F4DF
:1015F000BE0184E0DF91CF910C94BD0ADF91CF91C1
:101600000895BC0183E00C94BD0ACF93DF93EC01F5
:101610000E948906823011F08430F9F484E08093CE
:10162000E9008FEF9091E800815095FD06C095ED9F
:101630009A95F1F700008111F5CF8091E80085FFC0
:101640000CC050E040E066E070E0CE010E9427054B
:101650008091E8008E778093E800DF91CF91089524
:10166000CF93DF93EC010E948906823011F0843021
:10167000B9F580911F018823B1F18091420787FF5E
:1016800032C060E284E08093E9008FEF9091E8003F
:10169000815095FD06C095ED9A95F1F700008111F6
:1016A000F5CF8091E80085FF1BC080911F0170E09D
:1016B00050E040E0811104C050E040E068E070E09C
:1016C000CE010E9427058091E8008E778093E80084
:1016D00080E2FE01ABE9B7E001900D928A95E1F757
:1016E000DF91CF91089568E081E0CDCF81E08093D4
:1016F000E00080E28093D8001092C9008FE19EE460
:101700000197F1F700C0000087E090EBDC018093C7
:10171000CB079093CC07A093CD07B093CE0788E179
:101720009CE00FB6F894A895809360000FBE90934C
:101730006000FFCFCF93C82F882309F4AEC0823852
:10174000C1F40E945D0981FDA8C089E30E9465087B
:101750000E94F5072FEF81EE94E0215080409040E9
:10176000E1F700C0000089E30E943A08CF910C9491
:10177000F5078338A1F40E945D0980FD8EC083E5E2
:101780000E9465080E94F5072FEF81EE94E021503A
:1017900080409040E1F700C0000083E5E5CF843849
:1017A000A1F40E945D0982FD78C087E40E9465086B
:1017B0000E94F5072FEF81EE94E021508040904089
:1017C000E1F700C0000087E4CFCF8CEF8C0F813AA7
:1017D00088F580911F01882301F18091420787FFDE
:1017E0001CC0EC2FE695E695E695F0E0EA53FE4F37
:1017F000828190E04C2F477021E030E002C0220F40
:10180000331F4A95E2F782239323892B79F08C2F9B
:101810000E943A080E94F50709C0E8ECF1E08191C6
:10182000C817A9F321E0EE3CF207C9F78C2F0E94FC
:1018300065089CCF80E28C0F883068F4C77021E087
:1018400030E001C0220FCA95EAF780913307822B5E
:10185000809333078BCFEBE5EC0FE33040F4F0E0FF
:10186000E55BFE4F808190E0CF910C942209E8E582
:10187000EC0FE73150F4F0E0EE0FFF1FE25BFE4F9C
:1018800080819181CF910C940C09C03F30F08C2F56
:101890000E945607CF910C94D907CF910895CF930A
:1018A000C82F0E949A0BC93349F42FEF87EE93E0BB
:1018B000215080409040E1F700C000008C2FCF9174
:1018C0000C9469090F931F93CF93DF93C62FD42FE6
:1018D000022FFC0182818823A1F06093D8060E9428
:1018E000CD079093CD038093CC03C77081E001C0F6
:1018F000880FCA95EAF7DF91CF911F910F910C9451
:1019000002091091D806161335C08091CC0390912E
:10191000CD030E94BE07883C910560F5C0E2CD0F63
:101920001D17B9F080E2810F883040F4177081E014
:1019300001C0880F1A95EAF70E94F708C83048F4EA
:1019400081E09D2F977001C0880F9A95EAF70E9459
:101950000209802F0E944F0CC83098F4D77081E0A4
:1019600001C0880FDA95EAF7DF91CF911F910F91AF
:101970000C94F708C77081E001C0880FCA95EAF798
:10198000F3CFDF91CF911F910F9108957F928F92A6
:101990009F92AF92BF92CF92DF92EF92FF920F93FE
:1019A0001F93CF93DF930CE711E0AAE3B7E0712C0C
:1019B000CC24C394D12CE80189918E01E82FE295C3
:1019C000EF70F0E091A18F70760101C0EE0C8A9566
:1019D000EAF7892F8E2981A392A17E2D70959723F6
:1019E00092A3D0EADA95F1F790E8A92E91E0B92E0A
:1019F00050E040E030E020E0E50169915E01862E94
:101A000082948FE08822912CE40188A190E06F708D
:101A100002C0959587956A95E2F780FD5CC0C60186
:101A2000042E02C0880F991F0A94E2F7282B392B45
:101A30004F5F5F4F4C305105F9F681A1872381A399
:101A400082A1E82AE2A28D919C911197281739076B
:101A500009F444C011963C932E9381E0782A1296A3
:101A6000D1E000381D0709F0A6CF7720C9F181E049
:101A70008093E8010E94CD079093E7018093E601EF
:101A80008091E6019091E7010E94BE07069760F100
:101A900080913A0790913B07909386078093850742
:101AA00080913C0790913D0790938807809387072A
:101AB00080913E0790913F0790938A078093890712
:101AC000809140079091410790938C0780938B07FA
:101AD0001092E80109C090E080E0A8CF80E0BECF7E
:101AE0008091E8018111CCCF8091D706882371F0D5
:101AF0008091D5069091D6060E94BE07893E9340FC
:101B000028F082EE0E9469091092D706872DDF9196
:101B1000CF911F910F91FF90EF90DF90CF90BF90EA
:101B2000AF909F908F907F900895CF9384E090E046
:101B30000E94F030C82F81E290E00E94F030982F90
:101B40008C2FCF9108950F931F93CF93DF93C42FC2
:101B5000D0E0CC0FDD1F28E1629FC00DD11D112404
:101B600030E6839FC00DD11D1124CE0186960E94C0
:101B7000F030082F10E0102F0027CE0187960E942A
:101B8000F0309801282BC901DF91CF911F910F915F
:101B90000895462F873038F4743028F46C3018F4E8
:101BA000672F0C94A30D90E080E00895CF93DF930E
:101BB0000E94C90DEC0182389105A9F1D8F5813355
:101BC000910509F496C048F58932910509F48AC057
:101BD0008A9709F495C0C11521E5D20708F0BCC069
:101BE000C11530E5D30708F014C1C83ED10508F08F
:101BF0009CC0C03ED10560F5C83AD10508F087C049
:101C0000C53AD10508F0FDC0C130D10509F12097D2
:101C1000F9F0C430D105E0F440C08533910509F4F2
:101C20005AC0C997C1F680914207837089F0C0EE0F
:101C3000D0E00EC0833E910599F170F4803E91058D
:101C400001F1823E910539F68091420782FD21C063
:101C5000CE01DF91CF910895863E910561F1873ED7
:101C6000910571F1843E910509F0B5CF809143074C
:101C700081FFEECF80914207C7EED0E084FD0DC01A
:101C8000E7CF8091420780FD12C19091430790FFFA
:101C9000DFCFC3EED0E084FFDBCFD0E0C0E0D8CF11
:101CA0008091420782FD06C19091430790FDBFCF0E
:101CB00084FFCECFF2CF8091420783FDDDCFC8CF26
:101CC0008091420783FDF9C09091430791FFF0CFC7
:101CD000C4EED0E0BDCF8091420785FFB9CFC9E205
:101CE000D0E0B6CF8091420785FFB2CFC5E3D0E008
:101CF000AFCF8091420786FFABCFCAE2D0E0A8CF3A
:101D00008091420786FFA4CFC1E3D0E0A1CFCF3BB3
:101D1000D10518F6C85AD0E0CC0FDD1FC25BDE4FEC
:101D20000990D881C02DD46493CFC11540E2D40767
:101D300058F4C11581E0D80708F08ACFC03FD1051B
:101D400008F4ABCFD06584CFC11590E4D90708F46F
:101D5000A4CFDF70D06A7CCFC11525E5D20700F58E
:101D6000C11534E5D30708F08AC0C11543E5D4078F
:101D700008F071C0C11582E5D80708F467C0CE012C
:101D80008370992721E030E002C0220F331F8A952B
:101D9000E2F7C695C69580E2C89FE001112452C0C3
:101DA000C11599E5D907A8F4C11528E5D20708F0AF
:101DB0006BC0C11536E5D30708F06FCF8C2F0E949A
:101DC0007A0AC82FD0E0DC2FCC27CC27DF71D06275
:101DD0003FCFC1154AE5D40708F45BC0CE01905649
:101DE0008115904208F059CF8D2F8F710E947A0A89
:101DF00090E0982F882788279F719C012C2BE90160
:101E0000E6CFC55AD0E0C55BDE4FC881D0E0D064D4
:101E10001FCFCE01E4E096958795EA95E1F78370B0
:101E20002C2F26952695237040E2249F90011124A3
:101E3000382B8C2F8370C1E0D0E002C0CC0FDD1FA7
:101E40008A95E2F7C22BD32BDC6802CFDC2FCC279C
:101E5000C16FD06AFDCECE018370992721E030E0BA
:101E600002C0220F331F8A95E2F7C695C69590E20D
:101E7000C99FE0011124C22BD32BDA68E9CEDC2FF5
:101E8000CC27C46FD06AE4CEDC2FCC27C06FD06AD9
:101E9000DFCE8C2F8F700E947A0A34E0D695C795DA
:101EA0003A95E1F7CF709C2FEC01D069D1CEC9E310
:101EB000D0E0CECEC2EED0E0CBCEC6EED0E0C8CEE3
:101EC000BF92CF92DF92EF92FF920F931F93CF9327
:101ED000DF938C01C090C707D090C807E090C90776
:101EE000F090CA078091350790913607A091370787
:101EF000B0913807C82AD92AEA2AFB2ACFE1D0E0D4
:101F0000BC2ED701C6010C2E04C0B695A795979597
:101F100087950A94D2F780FD0EC0219788F7B12CDF
:101F20008B2DDF91CF911F910F91FF90EF90DF905C
:101F3000CF90BF900895B8018C2F0E94D60D0197C5
:101F400061F3EECFCF93DF93EC010E94600FBE01EF
:101F5000DF91CF910C94D60D0E94A20F292F2F70E4
:101F600092959F7092509E3078F4E92FF0E0E356FE
:101F7000FE4C0C947130803F19F020F4883E20F420
:101F800081E00895843FE1F380E00895883EC0F346
:101F9000813FD1F7F5CF822F869586958695089556
:101FA0006F927F928F929F92AF92BF92CF92DF9269
:101FB000EF92FF920F931F93CF93DF9381E0C82E90
:101FC00084E0D82E9EE9E92EF12CE701C056D10914
:101FD00036011BC0F50185909490692DC8010E94BF
:101FE0000431682DC80101960E94043182E0A80ED8
:101FF000B11C0E5F1F4FC017D10761F788E1680E53
:10200000711C6896CE15DF0529F08E010851110963
:102010005301E0CF7E0180E6E80EF11C80E6C80E99
:10202000D11C8EE3E81683E0F80679F6DF91CF91B4
:102030001F910F91FF90EF90DF90CF90BF90AF90E6
:102040009F908F907F906F900895CF93DF93C6EC11
:10205000D2E060E0CE010E9404312196C11588E0F3
:10206000D807B9F7DF91CF910895CF93C82F6FEFBD
:10207000811162E282E290E00E9404316FEFC111AF
:1020800062E183E290E00E9404316FEFC11165E0EC
:1020900084E290E0CF910C9404316CEE7EEF90E0FE
:1020A00080E00E94223160E082E090E00E940431F2
:1020B00060E083E090E00E940431109235071092B6
:1020C0003607109237071092380760E084E090E0FE
:1020D0000E94043160E081E290E00E94043160E0FF
:1020E00085E090E00E94043160E086E090E00E948C
:1020F00004316FEF87E090E00E94043140E050E04F
:10210000BA0188E090E00E94163160E08DE090E036
:102110000E94043140E050E0BA0188E190E00E9462
:10212000163160E087E190E00E94043140E050E029
:10213000BA018CE190E00E94163160E080E290E00C
:102140000E94043140E050E0BA018FE090E00E942C
:10215000163140E050E0BA0183E190E00C94163172
:10216000CF92DF92EF92FF926B017C010E94CB092C
:10217000B701A60188E090E0FF90EF90DF90CF904C
:102180000C94163180919607833018F48F5F8093FA
:1021900096076091920770919307809194079091B0
:1021A00095070C94B01080919607882319F0815000
:1021B000809396076091920770919307809194079E
:1021C000909195070C94B010E2E9F7E083E08083EA
:1021D00011828FEF828384EB83831482608171810B
:1021E000828193810C94B0101092330780911F016B
:1021F000E8ECF1E0882359F08091420787FF07C09F
:102200008EE1DF011D928A95E9F70C94380986E08A
:10221000F8CF1F93CF93DF93CDB7DEB7AA970FB652
:10222000F894DEBF0FBECDBF8EEB97E02091F1009A
:10223000DC012D93CD01B7E0863C9B07B9F7809177
:10224000BF07833009F471C0B8F4813009F448C085
:10225000823009F4B2C08091E80083FF3AC18091D6
:10226000BE079091BF079A3008F033C1E92FF0E024
:10227000E555FE4C0C9471308A3009F48DC08B30DA
:1022800009F470C0893039F78091BE07813219F79F
:102290008091C2079091C307009711F00297D9F679
:1022A0008091E800877F8093E8008091E80082FFBA
:1022B00037C08091F2009091F300029729F4809149
:1022C000F1008B7F813021F48091F10080939A0797
:1022D0008091E8008B778093E8000E947905BBCF5E
:1022E0008091BE07813A09F0B6CF8091E800877FE0
:1022F0008093E8008091C2079091C307892B61F415
:1023000060E28BE997E070E00E942C068091E80083
:102310008B778093E8009FCF60E090E080E0F3CF80
:102320008091C6078111C1CF96CF8091BE07813AB7
:1023300009F091CF8091C2079091C307892B09F0D2
:102340008ACF8091E800877F8093E8008091E80041
:1023500080FFFCCF80911F018093F1008091E80005
:102360008E77B9CF8091BE07813209F074CF80910A
:10237000C2079091C307892B09F06DCF8091E800C7
:10238000877F8093E8000E9479058091C007809341
:102390001F010E94F4105FCF8091BE07813209F0C7
:1023A0005ACF8091E800877F8093E8000E947905EA
:1023B0008091C107809399074ECF8091BE07813AE3
:1023C00009F049CF8091E800877F8093E8008091F1
:1023D000E80080FFFCCF80919907BECF803899F04C
:1023E000823809F076C08091C2078F70873008F07C
:1023F00070C08093E9008091EB0085FB882780F90D
:102400001092E90006C08091BB079091BC07911122
:1024100082609091E800977F9093E8008093F100AC
:102420001092F1008091E8008E77C0C1882309F4F2
:10243000ADC1823009F04DC08091C0078111B1C19A
:102440008091C2078F702FEF280F263008F041C00F
:102450008093E9002091EB0020FFA3C1933031F479
:102460008091EB0080628093EB009BC19091EB0028
:1024700090619093EB0021E030E001C0220F8A953B
:10248000EAF72093EA001092EA008091EB0088605E
:10249000EACF81111EC01091C0071F778091E30021
:1024A0008078812B8093E3008091E800877F809380
:1024B000E8000E9479058091E80080FFFCCF8091C0
:1024C000E30080688093E30082E0111183E0809351
:1024D000C6078091E80083FF0AC08091E800877FEB
:1024E0008093E8008091EB0080628093EB00AA96D5
:1024F0000FB6F894DEBF0FBECDBFDF91CF911F9115
:1025000008958058823028F72091C0073091C10784
:102510002C3DE3E03E07A1F583E08A838AE28983CC
:102520004FB7F894DE01139620E03EE051E2E32F2E
:10253000F0E050935700E49120FF03C0E295EF7064
:102540003F5FEF708E2F90E0EA30C0F0C7968D931A
:102550009D932F5F243159F74FBF8091E800877F0B
:102560008093E8006AE270E0CE0101960E942C069A
:102570008091E8008B778093E800ABCFC096E7CFDF
:102580008091C2079091C307432F552743305105CF
:1025900009F44AC078F54130510509F485C08BE54E
:1025A00090E0E6E8F8E04230510509F092CF209142
:1025B000E800277F2093E8002091C4073091C507E9
:1025C0008217930708F49C0140E02115310509F0BA
:1025D00070C041116EC08091E80082FDC9CF80912A
:1025E000C607882329F2853019F28091E80083FF1D
:1025F000F2CFBECF4132510509F447C042325105F6
:1026000009F067CF8330910508F063CFFC01EE0F2E
:10261000FF1FE654FE4F0190F081E02D89549E4F3C
:10262000DC018C9190E01DC0332721303105E9F0A9
:102630002115310579F022303105F9F023303105CB
:1026400009F047CFE3EFF8E0E4918E2F90E0E3EF5D
:10265000F8E007C0E7E1F9E0E4918E2F90E0E7E1D0
:10266000F9E0009709F435CFA2CFE3E0F9E0E49177
:102670008E2F90E0E3E0F9E0F4CFE9EFF8E0E491A9
:102680008E2F90E0E9EFF8E0ECCF8330910508F071
:1026900020CF880F991FFC01E054FE4F0190F0817C
:1026A000E02D89E090E083CF82E190E0E1EEF8E078
:1026B0007ECF8091C607882309F45ACF853009F46C
:1026C00057CF8091E80083FD53CF8091E80082FDD1
:1026D00082CF8091E80080FF78CF8091F2009091C6
:1026E000F3002115310519F08830910550F041E0D3
:1026F000089709F040E08091E8008E778093E80029
:1027000064CF44914093F1003196215031090196F4
:10271000E8CF803809F0DDCE8091E800877F809394
:10272000E8008091BD078093F1007CCE8111D1CE6D
:102730001091C007123008F0CCCE8091E800877F5E
:102740008093E8001093BD070E947905112311F0D2
:1027500084E005C08091E30087FDFACF81E080939B
:10276000C60742E061EC81E00E94980542E261EC1C
:1027700084E00E94980542E261EC82E00E949805A4
:1027800042E260EC83E00E949805A3CE8091C007EE
:10279000813009F09ECE81E0933009F080E0809393
:1027A000BC071092E9008091E800877F8093E800E1
:1027B0000E9479058ECE60919207669570E04BE09D
:1027C00050E084E091E00E94E330892B19F481E02D
:1027D000809383070E94CD0790934B0780934A070D
:1027E00008955F926F927F928F929F92AF92BF9265
:1027F000CF92DF92EF92FF920F931F93CF93DF93CD
:1028000000D000D00F92CDB7DEB78091920780FD47
:102810000AC0ECEEF1E0118210821282339622E0BF
:10282000E03AF207C1F7809045079090460781147F
:10283000910409F455C0D12CC12C66246394712CE9
:1028400053E0552E8091840793010C2C01C0220F78
:102850000A94EAF7822309F43BC0F601EE0FFF1F4A
:10286000E80DF91DE590F490E114F104C9F145E09B
:1028700050E0B701CE0101960E94DA3009810F3F86
:1028800039F18A81800F9927991F8D33910514F0B2
:102890008CE390E05C01AA0CBB1C8A0D9B1DFC0123
:1028A000E451FE4F5F01059D8001112404511E4F2C
:1028B0000A151B0520F0F5E0EF0EF11CD8CF9801AA
:1028C0004D816C818B810E94E1090D5F1F4FF0CF1C
:1028D0002FEFC21AD20A38E0C316D10409F0B2CFE2
:1028E0006E9A3EB13F7B2EB120644FB7F8948CEEC8
:1028F00091E0FC015191CF0168E02EB9000000C0C9
:1029000057FF3EB9550F000000C000C000C03EB9DF
:1029100000C06A9591F7F2E0803A9F0751F74FBFE8
:102920008FE594E00197F1F700C000000F900F9041
:102930000F900F900F90DF91CF911F910F91FF900B
:10294000EF90DF90CF90BF90AF909F908F907F904F
:102950006F905F9008958F929F92AF92BF92CF92A7
:10296000DF92EF92FF920F931F93CF93DF93FC01BF
:10297000B280948081E08483C0EAD2E00CEE11E062
:102980008BE4A82E88248394EE24EA94F12C2BE483
:10299000C22ED12C91101DC01B821A8298014A812F
:1029A000698188810E94E10925960D5F1F4F83E0B0
:1029B000CC3CD80779F7DF91CF911F910F91FF9011
:1029C000EF90DF90CF90BF90AF909F908F900C943E
:1029D000F1132B81222309F121502B833C818A2D75
:1029E000821B311101C0822F90919507899FC001F0
:1029F0001124B6010E9449306A83211104C0332397
:102A000011F01C82AB8222E02B1540F280919307DB
:102A10008883809194078983C1CF0E94CA30823015
:102A200091400CF0BBCF82E08B15C0F40E94CA30FD
:102A3000B7010E945D30888322E02B1590F40E943C
:102A4000CA30209194072695622F70E00E945D3075
:102A5000280F29831A82AB828C82A0CF80919307A2
:102A6000EACF20919407F5CFEF92FF921F93CF9377
:102A7000DF93EC018CEEE82E81E0F82E10E08C81E3
:102A800097014091950760919407810F0E94E10999
:102A90001C5F83E0E80EF11C103F89F70E94F113E0
:102AA0009A818C8190FF08C08F5F8C83DF91CF91DA
:102AB0001F91FF90EF9008958150F7CFBF92CF9272
:102AC000DF92EF92FF920F931F93CF93DF93FC015E
:102AD0008281DD24DA9480FD02C0DD24D3940CEEE3
:102AE00011E0D0E0C0E02CE3B22EF8011182108298
:102AF000128294E0E92EF12CC12C8091E9018C0D19
:102B00008D330CF43DC06B2D0E943B30892F082E75
:102B1000000C990B8C179D0791F4809195078E9D61
:102B2000A0018F9D500D11245595479555954795BA
:102B3000980160919407809193070E94E109CD0C60
:102B4000F1E0EF1AF108C9F621960D5F1F4FCC3363
:102B5000D10559F60E94F1138091E90191E0D91253
:102B600015C0811111C08BE38093E901DF91CF91F2
:102B70001F910F91FF90EF90DF90CF90BF9008953D
:102B800087FFC5CF845CC3CF8150EECF90E0019624
:102B9000BE010E945D30E8CF0F931F93CF93DF9368
:102BA000CCEED1E0FE01118210821282339682E0D7
:102BB000E03AF807C1F710E000E08091EA01082E42
:102BC000000C990B081719078CF180911001082E41
:102BD000000C990B801791074CF19E0140919507CD
:102BE00060919407809193070E94E1090F5F1F4F46
:102BF00023960C33110509F70E94F11380910F0100
:102C00009091EA01980F9093EA0120911001280F0A
:102C100020931001121614F49B331CF081958093BD
:102C20000F01DF91CF911F910F91089519821882A2
:102C30001A82DCCFEF92FF920F931F93CF93DF9313
:102C4000EC018C819D810196817099279D838C83F5
:102C50008CEEE82E81E0F82E10E005E5812F8695B8
:102C60002C813D81820F932F911D8170970140919E
:102C7000950760919407809F802D11240E94E1099F
:102C80001F5F83E0E80EF11C1C3341F7DF91CF9109
:102C90001F910F91FF90EF900C94F113EF92FF9220
:102CA0000F931F93CF93DF938C01CCEED1E0F12CE7
:102CB000E12CF80194816091940780919307FEE1E3
:102CC000EF16F104FCF49923F9F09E014091950769
:102CD0000E94E1092FEFE21AF20A23968CE3E8162C
:102CE000F10439F70E94F113F801848190E0019614
:102CF000817099278483DF91CF911F910F91FF906D
:102D0000EF900895992309F39E0140E0E1CF90915F
:102D1000920790FF0CC0ECEEF1E081836083428368
:102D2000339692E0E03AF907C1F70C94F113089555
:102D30000F931F93CF93DF9300D00F92CDB7DEB7E1
:102D40008C018091EB0181110AC09E012F5F3F4FE2
:102D500044EB6FEF0E94E1098A818093EB01F80157
:102D60006481613069F08091EB0140E0662361F09D
:102D700040E0623011F44091EB0180E060E004C07B
:102D80006091EB0140E080E00E948716F8018481A9
:102D900090E0019663E070E00E945D3084830F90C4
:102DA0000F900F90DF91CF911F910F910895CF93C6
:102DB000DF9300D00F92CDB7DEB79091920790FFCE
:102DC0000AC09E012F5F3F4F0E94E1094B8169813C
:102DD0008A810E9487160F900F900F90DF91CF91FC
:102DE0000895CF93DF93EC01EC81F0E0EF5FFC4FAF
:102DF0004491E2E9F7E0628181810E94D7168C81DB
:102E00008F5F8C83DF91CF910895CF93DF93EC0197
:102E1000E2E9F7E0438162818C810E94D7168C81C0
:102E20008F5F8C83DF91CF9108955F926F927F9235
:102E30008F929F92AF92BF92CF92DF92EF92FF92CA
:102E40000F931F93CF93DF9300D00F92CDB7DEB7D0
:102E5000182F762E042F622E9091920790FF29C092
:102E6000E92FE695AE2FB0E0A05EBE4F8C91809327
:102E700082079E7F923081F59E012F5F3F4F812F09
:102E80000E94E1094B8169818A810E948716109313
:102E900093077092940700939507662051F0609114
:102EA00092077091930780919407909195070E94E3
:102EB000B0100F900F900F90DF91CF911F910F9155
:102EC000FF90EF90DF90CF90BF90AF909F908F904A
:102ED0007F906F905F900895823019F4009195076C
:102EE000D6CF863019F410919307D1CF8930D9F31A
:102EF000893169F6E9518E2F8170582EE695F0E000
:102F0000E450FD4FA590B490BB248CEEE82E81E0F8
:102F1000F82ED12CC12C9CE3892E912CC601B40132
:102F20000E944930812F511013C0860F9701402F06
:102F3000672D0E94E109CA0CDB1C83E0E80EF11C3E
:102F400080EAE81682E0F80649F70E94F1139FCF65
:102F5000861BECCF9091920790FF36C09170811143
:102F600029C0926090939207662351F06091920776
:102F70007091930780919407909195070E94B010EB
:102F800060919207669570E04BE050E084E091E03C
:102F90000E94E330892BA9F01092830781E080938F
:102FA0004D0720E040919507609194078091930729
:102FB0000C9415178B3210F09465D4CF880F982B92
:102FC000D1CF0E94DB13EACF089521E030E0A901C0
:102FD00002C0440F551F8A95E2F7CA012091840769
:102FE000662399F0822B8093840780918307811157
:102FF00006C08091920760E086950E94AA17809192
:10300000920780FD05C00C94F11380958223EBCFCD
:103010000895CF92DF92EF92FF926B017C0160E006
:10302000C114D104E104F10441F0DC01C601B695FC
:10303000A79597958795682F617081E00E94E517A5
:1030400060E0C114D104E104F10459F0D701C601D4
:1030500062E0B695A795979587956A95D1F7682F01
:10306000617082E00E94E51760E0C114D104E104C0
:10307000F10459F0D701C60153E0B695A79597958D
:1030800087955A95D1F7682F617083E00E94E51704
:1030900060E0C114D104E104F10459F0D701C60184
:1030A00044E0B695A795979587954A95D1F7682FEF
:1030B000617084E00E94E51760E0C114D104E1046E
:1030C000F10459F0D701C60135E0B695A79597955B
:1030D00087953A95D1F7682F617085E00E94E517D2
:1030E00060E0C114D104E104F10459F0D701C60134
:1030F00026E0B695A795979587952A95D1F7682FDD
:10310000617086E00E94E517C092C707D092C80799
:10311000E092C907F092CA07FF90EF90DF90CF903E
:103120000C9438090F931F936091C7077091C807DB
:103130008091C9079091CA078B019C0106701127E5
:1031400022273327063011052105310529F468604F
:103150001F910F910C940918677FFACF0F931F935B
:1031600041E050E060E070E004C0440F551F661F6E
:10317000771F8A95D2F7CB01BA016095709580953B
:1031800090950091C7071091C8072091C907309109
:10319000CA0760237123822393231F910F910C94FC
:1031A0000918909130078095892380933007282F44
:1031B000277071F4282F082E000C330B921713067A
:1031C00039F08595859585950E94AE181092300747
:1031D00008950F931F9341E050E060E070E004C059
:1031E000440F551F661F771F8A95D2F78091C70736
:1031F0009091C807A091C907B091CA078A019B01A5
:10320000082B192B2A2B3B2BC901B8011F910F91B9
:103210000C94091860E070E0CB010C94091881FB54
:10322000662760F980E00C94E517809192078695F7
:10323000815009F48AE261E00C94AA178091920708
:1032400086958F5F8B3208F081E061E00C94AA17BD
:103250009091920790FF07C09695981720F09617C7
:1032600010F40C941E1961E00C94AA174F925F920F
:103270006F927F928F929F92AF92BF92CF92DF9286
:10328000EF92FF920F931F93CF93DF9300D000D064
:103290000F92CDB7DEB77C01FC0183819481892B2D
:1032A00031F08081918189238F3F09F02AC70F90E7
:1032B0000F900F900F900F90DF91CF911F910F9172
:1032C000FF90EF90DF90CF90BF90AF909F908F9046
:1032D0007F906F905F904F9008950E94600F182F1D
:1032E000682F89819A810E94C10869817A81812F22
:1032F0000E94C90D8C018091D406F7019281811141
:10330000E6C091110CC00430FDE51F0709F4ADC003
:1033100008F056C003303DE5130709F477C0F70104
:103320008281882309F4E2C6980122513F45203169
:10333000310508F0ADC68FEF97E00E94F0300251E2
:1033400056EC852E52E0952E81116DC0011147C1BA
:103350001C821B82662463944AE0542E84010F5F12
:103360001F4FC4010E94F03089831A82882309F418
:103370005AC09FEF980F933008F040C18A8369824A
:1033800032E0830E911CC8010E94F0308B838823A9
:1033900009F449C08E010F5F1F4FF80120812223DD
:1033A000E9F2213009F063C191818281913009F005
:1033B00027C10E5F1F4F0E944F0C0F5F1F4FEDCFB5
:1033C00006308DE5180709F45CC007309DE5190744
:1033D00009F0A5CFC0901101D09012018090C707CD
:1033E0009090C807A090C907B090CA070E94F41037
:1033F0000E940A190CEC16E0C016D10609F456C05A
:10340000C8010E94361906501109F6CF0E94F41027
:103410000E940A1982ED93E09093D3068093D2061E
:1034200081E08093D40680913007877009F43FCF04
:10343000F7018281882309F43ACF82E00F900F9040
:103440000F900F900F90DF91CF911F910F91FF90F0
:10345000EF90DF90CF90BF90AF909F908F907F9034
:103460006F905F904F900C94D1180E94F4100E94BE
:103470000A198CEC96E09093D3068093D20682E0F2
:10348000D0CFC0901301D09014018090C7079090C6
:10349000C807A090C907B090CA070E94F4100E9404
:1034A0000A1902ED13E0C016D10659F40E94F41077
:1034B0008092C7079092C807A092C907B092CA0726
:1034C000B2CFC8010E9436190A5F1F4FECCF980196
:1034D00023503D4523303105B8F521E005301D4529
:1034E00009F420E0291709F49ECF813029F08230B9
:1034F000B9F01092D40697CF8091D2069091D3065E
:10350000F3E0823D9F0729F0FC01369722812111CB
:1035100005C09093140180931301EBCFCF01F0CF3E
:103520008091D2069091D30626E08C3C920729F038
:10353000FC0136962281211105C0909312018093DF
:103540001101D7CFCF01F0CF813021F1823009F0C6
:10355000E6CE2091130130911401A091D206B091D2
:10356000D306911105C096E0AC3CB90709F4D7CE5B
:10357000CD0106962817390709F4D1CE86E0F70168
:1035800001900D928A95E1F78091D2069091D30631
:10359000069720C02091110130911201A091D2060E
:1035A000B091D306911105C083E0A23DB80709F49C
:1035B000B6CECD0106972817390709F4B0CE86E0BC
:1035C000F70101900D928A95E1F78091D2069091D2
:1035D000D30606969093D3068093D206A0CE81148C
:1035E000F8E09F0609F41FCFC4010E94F03081115A
:1035F00001C001502FEF821A920AA8CE4801CACE0C
:10360000923029F40E5F1F4F0E949A0BD6CE933052
:1036100029F40E5F1F4F0E946909CFCE943019F034
:103620000F5F1F4FCACE0E5F1F4F30E020E0B80182
:103630006F5F7F4FF80141818053990B8A3091056C
:1036400058F02150310908F4B8CE8FE99FE0019776
:10365000F1F700C00000F5CF529EF001539EF00D2F
:1036600011249C012E0F3F1F842F8B01E0CFE22FEE
:10367000F0E0EF51F84F7490822F869586958695ED
:1036800090E0FC01EF52F84FA4902770B12C022E6D
:1036900002C0B594A7940A94E2F7E1E0AE22BB24FD
:1036A000FC01EF53F84FC490D12C02C0D594C794BD
:1036B0002A95E2F7F1E0CF22DD24A114B10419F03C
:1036C00081EE0E949A0BC114D10419F086EE0E947B
:1036D0009A0B872D0E944F0CCD2819F086EE0E9480
:1036E0006909AB2809F469CE81EE95CF81E00E948B
:1036F000E91803C081E00E94AE180E94921893CE90
:1037000082E0F5CF882309F477C08091D706811134
:1037100006C081E08093D70682EE0E949A0B0E9439
:10372000CD079093D6068093D5068BE20E949A0B24
:10373000F7019281992309F4F5C41092D80602305A
:10374000FCE51F0708F45EC106312CE5120738F0CE
:1037500098012A5F3C452930310508F053C10E9489
:10376000950D909343078093420700313CE5130782
:1037700009F417C108F0A5C008309CE5190709F441
:1037800006C108F074C00430FCE51F0709F4F7C057
:1037900008F05AC002303CE5130709F4E6C00330D4
:1037A0001C4509F4E8C0609142071091430784E08A
:1037B00090E00E940431612F81E290E00E94043188
:1037C0000E94F41030CE8823A1F08091D706811199
:1037D00006C081E08093D70682EE0E949A0B0E9479
:1037E000CD079093D6068093D50681EE0E949A0B62
:1037F0009CCF81EE0E9469098BE20E94690998CFF3
:10380000053F3CE51307C9F0A0F027E245EE66EE60
:10381000063F9CE5190709F08BCFC7010E94620C97
:1038200002CE27E245EE65EEF8CF26E241EE60EEED
:10383000F4CF27E245EE64EEF0CF26E241EE62EEF1
:10384000ECCF28E241E0EFCF809142078061063063
:103850009CE5190709F48CC0809142078860073005
:103860001C4508F485C080914207806281C0809128
:1038700042078D7F0C30FCE51F0709F479C070F416
:10388000809142078C600A303CE5130709F470C050
:1038900008F481C0809142078E7F6AC08091420700
:1038A000877F0E309CE5190709F462C080914207BA
:1038B0008B7F0F301C4508F45BC0809142078F7EE0
:1038C00057C00B3FFCE51F0709F45DC030F503311D
:1038D0003CE5130709F46DC078F401319CE5190744
:1038E00009F463C002311C4509F05DCF0E94F41059
:1038F000809142078F773CC00531FCE51F0709F432
:1039000060C008F474C08091430781600A3F1C4581
:1039100009F049CF8093430746CF0F3F8CE5180746
:1039200009F44BC088F4809143078D7F0D3FECE58F
:103930001E0781F3809143078E7F0E3F1C4550F395
:10394000809143078360E6CF01302DE5120709F42B
:1039500057C008F442C060E002301D4509F023CF93
:103960008EE090E00E9404311ECF8091420781607A
:103970008093420718CF809142078260F9CF8091EF
:1039800042078460F5CF809143078260C3CF809166
:1039900042078064EDCF0E94F41080914207806856
:1039A000E7CF809142078F7DE3CF809142078F7BE5
:1039B000DFCF80914207837FDBCF809143078C7FED
:1039C000A9CF8091420782FB992790F921E09227A5
:1039D00090FB82F990FB83F9CBCF80914307982F1E
:1039E000909591708E7F892B90FB81F993CF0E94E7
:1039F000F41090914207892F97FB87F98058B8CF30
:103A000061E0AECF809133070631ECE51E0709F087
:103A100095C38A7A91E009F490E09093D9068111D8
:103A200006C089E20E9465080E94F507FCCC85E388
:103A3000F9CF85E380C38091920780FF1BC08E7F02
:103A400080939207609192077091930780919407F9
:103A5000909195070E94B01010928307FFEF20E726
:103A600032E0F15020403040E1F700C000000E94F9
:103A7000F113D9CC81608093920761E086950E9412
:103A8000AA17D1CC45E159E16EE179E10E94C6095E
:103A9000CACC4EE159E165E179E1F8CF4FED57E24B
:103AA00068EE77E2F3CF48EE57E26FED77E2EECFC4
:103AB00047EC57E263ED77E2E9CF43ED57E267EC7D
:103AC00077E2E4CF4FEA57E26BEB77E2DFCF4BEBE5
:103AD00057E26FEA77E2DACF43ED50E162EC70E152
:103AE000D5CF42EC50E163ED70E1D0CF61E081E0F1
:103AF000C6CF65E082E00E94281995CC68E086E098
:103B0000FACF6EE089E0F7CF64E18FE0F4CF67E1B0
:103B100085E1F1CF61E088E1B2CF62E289E1EBCFEC
:103B200061E083E2ACCF01158CE5180709F447C0CA
:103B30000E3D1C4509F450C0F70100811181992305
:103B400009F44DC0C8010E94600FD82E682FC8012B
:103B50000E94C108B8018D2D0E94D60D8C01882EBF
:103B6000F701A580A2943FE0A322D280D110109249
:103B7000320780913007877099F0DD2089F0812F1E
:103B8000807F803421F080E2800F883048F082E02E
:103B90000E94D118809130078770CC24C394811182
:103BA000C12CB12EB2942FE0B222FBE0FB1508F439
:103BB00050C0EB2DF0E0EB54FE4C0C9471300E94A1
:103BC000F410FFEF24E33CE0F15020403040E1F7F7
:103BD00000C000000E94760B0E944D1024CCC8014A
:103BE0000E949908D82EB6CF212F2F70A22E107FB9
:103BF00019F0A29490EFA922DD20C9F0AA2069F063
:103C000080E2800F883010F081100BC08091330764
:103C1000A82AA09233070E94F507802F0E949A0BD2
:103C200018C080913207A82AA0923207F4CF802FC3
:103C30000E946909AA2069F0A094005E083010F083
:103C400081103DC080913307A822A09233070E94C3
:103C5000F507EB2DE850FF0B349720F40E945D0927
:103C60000E940F19CC2009F422CB8091300780FDEF
:103C70001ECBF70112828595859585950E94E918DE
:103C8000C7010E94361980913007859585958595E5
:103C90000F900F900F900F900F90DF91CF911F9189
:103CA0000F91FF90EF90DF90CF90BF90AF909F90DB
:103CB0008F907F906F905F904F900C94AE18809192
:103CC0003207A822A0923207C2CF312F3F70932E25
:103CD000107F103219F0929480EF9822882071F0B2
:103CE00081E0881661F1DD20B9F1AA2071F1F701B8
:103CF000858180FF92CF8F70858327C0DD2091F072
:103D000090913407892D892BA11003C00E940209CC
:103D1000A0CFE1E0AE12FACF981709F49ACF8093C2
:103D2000340797CFA11006C00E94EF07892D0E948B
:103D3000F7088FCFF1E0AF1609F48BCFF5CFDD2078
:103D400031F025E02A1508F484CF892DDFCF34E047
:103D50003A1508F47ECFEACFAA2041F3F9E38F1297
:103D600090C12FEF37EE83E0215030408040E1F7E3
:103D700000C0000086C1812F86958695837061F012
:103D8000813009F066CFC8019370D11002C090E075
:103D900080E00E940C095DCFC8019370D11002C071
:103DA00090E080E00E94220954CF802FDD2029F08E
:103DB0000E9456070E94D9074CCF0E949506FACF61
:103DC000812F837009F066C0D11043CF802F829578
:103DD00086958770880F880F602F6F70462E512C44
:103DE000712C612C082E04C0440C551C661C771CD9
:103DF0000A94D2F740E050E0BA0104FF0FC04FE050
:103E000050E060E070E004C0440F551F661F771F4C
:103E10008A95D2F74095509560957095812F86953B
:103E200086958370823019F1D8F40091350710918E
:103E300036072091370730913807813069F04429DF
:103E4000552966297729CB01BA0160237123822382
:103E500093230E945309FDCE402A512A622A732AD5
:103E6000CB01BA016429752986299729F2CF442903
:103E70005529662977290091350710913607209139
:103E8000370730913807CB01BA01602771278227A5
:103E90009327DFCF8695DD2011F0812F8170882355
:103EA00009F4D7CE802F829586958770880F880F6A
:103EB000602F6F70462E512C712C612C082E04C07F
:103EC000440C551C661C771C0A94D2F740E050E065
:103ED000BA0104FF0FC04FE050E060E070E004C0A2
:103EE000440F551F661F771F8A95D2F7409550954E
:103EF00060957095812F869586958370823019F133
:103F0000D8F40091C7071091C8072091C9073091D4
:103F1000CA07813069F04429552966297729CB01E0
:103F2000BA0160237123822393230E94091891CE42
:103F3000402A512A622A732ACB01BA0164297529C1
:103F400086299729F2CF4429552966297729009196
:103F5000C7071091C8072091C9073091CA07CB0144
:103F6000BA016027712782279327DFCF1F70DD20DA
:103F700029F0812F0E94E918802FC8CE802F0E943F
:103F8000F708812F0E94AE1864CE802F92EF891619
:103F900009F450C0981578F0E0EF8E1619F1F1EFA2
:103FA0008F1609F43FC0DD2009F466C0A11035CE9C
:103FB000812F8F713CC023EF821609F440C034EF8B
:103FC0008312F1CFDD2009F44CC01F71812F0E94B4
:103FD000E918E8E01E9FC001112483608093300738
:103FE000812F25C0DD20C9F084E08A1508F431CE88
:103FF0001F7161E070E080E090E004C0660F771F01
:10400000881F991F1A95D2F70091C7071091C8070A
:104010002091C9073091CA07A4CF95E09A1508F4FA
:1040200018CEE6CF812F8F71DD2009F4ABCF0E942F
:10403000E9180FCE812F8F71DD20C9F3A3CFDD20CA
:1040400069F01F7161E070E080E090E004C0660FED
:10405000771F881F991F1A95D2F767CF0E940A19F8
:10406000F8CD81E00E94D118F1E0FA1508F0F1CD09
:1040700082E00E94D118EDCDAA2039F0893309F4ED
:1040800070CE802F0E946909E4CD812F8F717ACF85
:104090000031FFE51F0709F429CB01312FE5120795
:1040A00009F42ECB00382FE5120709F42BCB013889
:1040B0003FE5130709F487CB033F8CE5180709F4A4
:1040C000B4CB08F09DCB083DECE51E0709F4A9CB65
:1040D000093DFCE51F0709F4B4CB073D2CE51207A9
:1040E00009F026CB26E241EE61EE97CB00313FE5A9
:1040F000130709F4FFCA01319FE5190799F682E019
:10410000FACA85E0DE01119601900D928A95E1F7D9
:10411000F701228189819A812111DFC80E949908C3
:10412000182FE3C806311C4509F006CD8091D90649
:1041300081117FCC89E20E943A0876CC8272F80124
:10414000E25CFC45E431F10508F0EDCCEF53FE4CA8
:104150000C9471301F93CF93DF938091DF06807FA3
:10416000A9F48091DC06882389F080911107D09111
:10417000E0066091DA067091DB06A091DD06B09151
:10418000DE06C62FC72316E0D81304C0DF91CF91F7
:104190001F91089590E0109711F0CF3F19F4019608
:1041A0008770F2CF189F9001199F300D1124F901EB
:1041B000EF51F94F41814713F2CF40814613EFCFC2
:1041C00042814111ECCF438154814A1B5B0B483C37
:1041D000510528F78091DF068F7080618093DF069C
:1041E000F901EA51F94F80818F70806180838AEDF7
:1041F00096E00E943619DF91CF911F910C94ED0843
:10420000AF92BF92CF92DF92EF92FF920F931F93E4
:10421000CF93DF93CDB7DEB761970FB6F894DEBFCB
:104220000FBECDBF8C0185E0F801DE011D96019027
:104230000D928A95E1F7F80180819181E2802AED63
:10424000A22E26E0B22E6091DD067091DE06611589
:10425000710509F43EC13091DA064091DB06232F47
:1042600024232F3F09F435C1C380D480F090DC06AD
:10427000F601E61BF70BFF2009F4FBC02091DF06D7
:10428000522F507FE83CF10508F0BBC0511178C0B7
:10429000FE2C491321C038131FC0E1101DC02F7020
:1042A00020612093DF06C5010E9436198091DF0648
:1042B000F80185838F2D61960FB6F894DEBF0FBE8F
:1042C000CDBFDF91CF911F910F91FF90EF90DF90C5
:1042D000CF90BF90AF900895CD2829F0282F2923A3
:1042E0002F3F09F014C120E0F22FF170DF2E20FFE4
:1042F0003DC0209111074091E00656E0241315C0FF
:104300008D879E878D859E850E94A20F292F2295DD
:104310002F702230F8F0243020F59F70F9F0F8016A
:104320009581907FD9F4D12C1FC030E0529FF001CD
:10433000539FF00D1124EF51F94F6181961306C080
:104340006081861303C06281E61210C02F5F3F4F69
:104350002770D4CF9F7011F0882329F3805E8830B6
:1043600010F3C8010E943619FD2CA4CFEE2009F4E9
:10437000A1CF8091DF0681608093DF06F12C9ACF78
:10438000491312C0381310C0E1100EC0F801258384
:10439000C8010E94361986E0F801AAEDB6E0019046
:1043A0000D928A95E1F786CF8D879E878D859E85B4
:1043B0000E94AC0F882309F1EE20F9F08091DF060E
:1043C000803270F02091DA063091DB0638872F8337
:1043D0001986DB86CA868C87CE0107960E9436191D
:1043E00086E0F801AAEDB6E001900D928A95E1F71A
:1043F0000E94AA20FF24F3945DCFC8010E943619C1
:10440000F9CF51110AC08AED96E00E94361986E074
:10441000F50111928A95E9F7B1CF49130FC038130E
:104420000DC0E1100BC0F8012583C8010E943619A8
:1044300086E0F50111928A95E9F73CCF8D879E873A
:104440008D859E850E94AC0F8823B9F2EE20A9F2DB
:104450008091DF06803220F22091DA063091DB066F
:104460003A8329831B82DD82CC828E83CE01019622
:10447000B5CFE83CF105E0F6FE2CEE2009F4BDCF07
:10448000491316C0381314C08091DF0680FD83CF16
:10449000982F907F09F47FCFF8018583903F09F42E
:1044A00077CF982F907F905F8F70892B858370CF07
:1044B0008D879E878D859E850E94AC0F811190CF40
:1044C0008091DF0681608093DF06C8010E94361963
:1044D000F1CEEE2009F491CF8D879E878D859E8544
:1044E0000E94AC0FF82E882309F487CF86E0F801EC
:1044F000AAEDB6E001900D928A95E1F78091DA0677
:104500009091DB060E94A20F0E94AA20D3CE21E048
:104510002E25EACE1F93CF93DF93CDB7DEB76797F3
:104520000FB6F894DEBF0FBECDBF4B8B5C8B6D8B8F
:104530007E8B8F8B1A8A198A85E0FE017396DE01C5
:104540001D9601900D928A95E1F786E0FE013D9659
:10455000DE01179601900D928A95E1F7CE0107963C
:104560000E940021882389F016E080911107909124
:10457000E006891349C067960FB6F894DEBF0FBEF8
:10458000CDBFDF91CF911F91089586E0FE01379650
:10459000DE01119601900D928A95E1F78A859B853F
:1045A000892B11F38F81988589238F3FE9F2209120
:1045B000E00630E0C9010196877099274091110704
:1045C0004817190671F40E94F4101092E006109238
:1045D000110786E0EAEDF6E0DF011D928A95E9F722
:1045E000C3CF96E0929FD001939FB00D1124AF519D
:1045F000B94FFE01319601900D929A95E1F78093A3
:10460000E0060E94ED08B0CF819FC00111248F51B8
:10461000994F0E940021882309F4ADCF80911107A2
:1046200090E0019687709927809311079ECF0F9392
:104630001F93CF93DF93CDB7DEB7C45BD1090FB61D
:10464000F894DEBF0FBECDBF182F8111CCC06623FA
:1046500009F46AC0C055DF4F1882C05BD040CF5408
:10466000DF4F1882C15BD04081E0CE54DF4F88839A
:10467000C25BD0400E94CD078160782FCD54DF4FC0
:1046800099838883C35BD040C055DF4F4881C05BAE
:10469000D040CF54DF4F5881C15BD040CE54DF4F64
:1046A0006881C25BD040CC54DF4F8881C45BD0406E
:1046B0000E948A22C555DF4F1882CB5AD040C4557C
:1046C000DF4F1882CC5AD040C355DF4F1882CD5AE5
:1046D000D0400E94CD078160782FC255DF4F99836B
:1046E0008883CE5AD040C555DF4F4881CB5AD04041
:1046F000C455DF4F5881CC5AD040C355DF4F688135
:10470000CD5AD040C155DF4F8881CF5AD040CC54CC
:10471000DF4F0FB6F894DEBF0FBECDBFDF91CF9154
:104720001F910F910C948A2212E0CA55DF4F188313
:10473000C65AD040C955DF4F1882C75AD04081E0D1
:10474000C855DF4F8883C85AD0400E94CD0781608A
:10475000782FC755DF4F99838883C95AD040CA55EF
:10476000DF4F4881C65AD040C955DF4F5881C75ADC
:10477000D040C855DF4F6881C85AD040C655DF4F7A
:104780008881CA5AD0400E948A22CF55DF4F1883B1
:10479000C15AD040CE55DF4F1882C25AD040CD55B5
:1047A000DF4F1882C35AD0400E94CD078160782F16
:1047B000CC55DF4F99838883C45AD040CF55DF4F03
:1047C0004881C15AD040CE55DF4F5881C25AD0409F
:1047D000CD55DF4F6881C35AD040CB55DF4F88811C
:1047E000C55AD04094CF813009F0BEC0662309F489
:1047F0005DC0C456DF4F1882CC59D040C356DF4F3E
:104800008883CD59D040C256DF4F8883CE59D040DF
:104810000E94CD078160782FC156DF4F998388832E
:10482000CF59D040C456DF4F4881CC59D040C356F1
:10483000DF4F5881CD59D040C256DF4F6881CE59E5
:10484000D040C056DF4F8881C05AD0400E948A2293
:10485000C956DF4F1882C759D040C856DF4F18835A
:10486000C859D040C756DF4F1882C959D0400E945E
:10487000CD078160782FC656DF4F99838883CA5948
:10488000D040C956DF4F4881C759D040C856DF4F86
:104890005881C859D040C756DF4F6881C959D040A8
:1048A000C556DF4F8881CB59D04031CF02E0CE567C
:1048B000DF4F0883C259D040CD56DF4F8883C3599C
:1048C000D040CC56DF4F8883C459D0400E94CD07DA
:1048D0008160782FCB56DF4F99838883C559D040AC
:1048E000CE56DF4F4881C259D040CD56DF4F588158
:1048F000C359D040CC56DF4F6881C459D040CA5606
:10490000DF4F8881C659D0400E948A22C357DF4FAB
:104910000883CD58D040C257DF4F1883CE58D040BF
:10492000C157DF4F1882CF58D0400E94CD07816019
:10493000782FC057DF4F99838883C059D040C35721
:10494000DF4F4881CD58D040C257DF4F5881CE58F5
:10495000D040C157DF4F6881CF58D040CF56DF4F8E
:104960008881C159D040D3CE823009F0ABC06623D4
:1049700009F45EC0C857DF4F1882C858D040C757E7
:10498000DF4F8883C958D04081E0C657DF4F888306
:10499000CA58D0400E94CD078160782FC557DF4F9D
:1049A00099838883CB58D040C857DF4F4881C85877
:1049B000D040C757DF4F5881C958D040C657DF4F46
:1049C0006881CA58D040C457DF4F8881CC58D04046
:1049D0000E948A22CD57DF4F1882C358D040CC574F
:1049E000DF4F1883C458D040CB57DF4F1882C558CB
:1049F000D0400E94CD078160782FCA57DF4F99833E
:104A00008883C658D040CD57DF4F4881C358D04027
:104A1000CC57DF4F5881C458D040CB57DF4F688107
:104A2000C558D040C957DF4F8881C758D0406FCE96
:104A3000EF968FAFEF97C158DF4F8883CF57D040A5
:104A400081E0C058DF4F8883C058D0400E94CD0716
:104A50008160782FCF57DF4F99838883C158D0402A
:104A6000EF964FADEF97C158DF4F5881CF57D040E9
:104A7000C058DF4F6881C058D040CE57DF4F888183
:104A8000C258D0400E948A22EA961FAFEA97EB965E
:104A90001FAFEB97EC961FAEEC970E94CD0781609D
:104AA000782FEE969FAF8EAFEE97EA964FADEA97CE
:104AB000EB965FADEB97EC966FADEC97EE968FAD06
:104AC000EE9725CE833009F081C0662309F43FC0FC
:104AD00019E0E5961FAFE597E6961FAEE69781E0F1
:104AE000E7968FAFE7970E94CD078160782FE99610
:104AF0009FAF8EAFE997E5964FADE597E6965FAD30
:104B0000E697E7966FADE797E9968FADE9970E9434
:104B10008A22E0961FAFE097E1961FAEE197E296FA
:104B20001FAEE2970E94CD078160782FE4969FAF79
:104B30008EAFE497E0964FADE097E1965FADE197D9
:104B4000E2966FADE297E4968FADE497E0CD1BE07F
:104B5000AB961FAFAB97AC961FAEAC9781E0AD960E
:104B60008FAFAD970E94CD078160782FAF969FAF32
:104B70008EAFAF97AB964FADAB97AC965FADAC97A2
:104B8000AD966FADAD97AF968FADAF970E948A226D
:104B9000A6961FAFA697A7961FAEA797A8961FAE7B
:104BA000A8970E94CD078160782FAA969FAF8EAFFD
:104BB000AA97A6964FADA697A7965FADA797A8967A
:104BC0006FADA897AA968FADAA97A1CD843009F0B2
:104BD00081C0662309F43FC009E0A1960FAFA197F9
:104BE00011E0A2961FAFA297A3961FAFA3970E94B2
:104BF000CD078160782FA5969FAF8EAFA597A19620
:104C00004FADA197A2965FADA297A3966FADA39764
:104C1000A5968FADA5970E948A226C960FAF6C97D0
:104C20006D961FAF6D976E961FAE6E970E94CD0763
:104C30008160782FA0969FAF8EAFA0976C964FADF6
:104C40006C976D965FAD6D976E966FAD6E97A096F3
:104C50008FADA0975CCD0BE067960FAF679711E023
:104C600068961FAF689769961FAF69970E94CD0736
:104C70008160782F6B969FAF8EAF6B9767964FAD25
:104C8000679768965FAD689769966FAD69976B9601
:104C90008FAD6B970E948A2262960FAF62976396E0
:104CA0001FAF639764961FAE64970E94CD07816023
:104CB000782F66969FAF8EAF669762964FAD6297DC
:104CC00063965FAD639764966FAD649766968FAD9C
:104CD00066971DCD853009F077C0662309F440C082
:104CE00009E02D960FAF2D9712E02E961FAF2E974D
:104CF00081E02F968FAF2F970E94CD078160782F8C
:104D000061969FAF8EAF61972D964FAD2D972E96E2
:104D10005FAD2E972F966FAD2F9761968FAD6197F0
:104D20000E948A2228960FAF289729961FAF2997AD
:104D30002A961FAE2A970E94CD078160782F2C9665
:104D40009FAF8EAF2C9728964FAD289729965FADD1
:104D500029972A966FAD2A972C968FAD2C97D7CC92
:104D60000BE023960FAF239712E024961FAF2497F2
:104D700081E025968FAF25970E94CD078160782F1F
:104D800027969FAF8EAF279723964FAD23972496F4
:104D90005FAD249725966FAD259727968FAD279702
:104DA0000E948A220DAF1EAF1FAE0E94CD07816008
:104DB000782F22969FAF8EAF22974DAD5EAD6FAD2F
:104DC00022968FAD2297A3CC863009F042C066238D
:104DD00001F109E008AF13E019AF81E08AAF0E944A
:104DE000CD078160782F9CAF8BAF48AD59AD6AADD0
:104DF0008CAD0E948A220BAB1CAB1DAA0E94CD0772
:104E00008160782F9FAB8EAB4BA95CA96DA98FA950
:104E10007ECC0BE00EA713E01FA781E088AB0E94B9
:104E2000CD078160782F9AAB89AB4EA55FA568A9A5
:104E30008AA90E948A2209A71AA71BA60E94CD0749
:104E40008160782F9DA78CA749A55AA56BA58DA534
:104E50005ECC873009F041C06623F9F013E01CA353
:104E60001DA381E08EA30E94CD078160782F98A7B3
:104E70008FA34CA15DA16EA188A50E948A221F8FDD
:104E800018A319A20E94CD078160782F9BA38AA343
:104E90004F8D58A169A18BA13ACC05E00A8F13E090
:104EA0001B8F81E08C8F0E94CD078160782F9E8FB1
:104EB0008D8F4A8D5B8D6C8D8E8D0E948A220D8B1D
:104EC0001E8B1F8A0E94CD078160782F998F888F53
:104ED0004D895E896F89898D1ACC662301F106E0C0
:104EE000088B13E0198B81E08A8B0E94CD078160CB
:104EF000782F9C8B8B8B488959896A898C890E9471
:104F00008A220B871C871D860E94CD078160782F1F
:104F10009F878E874B855C856D858F85F8CB08E0F4
:104F20000E8313E01F8381E088870E94CD07816094
:104F3000782F9A8789874E815F8168858A850E944C
:104F40008A2209831A831B820E94CD078160782FF1
:104F50009D838C8349815A816B818D81D8CBE2E915
:104F6000F7E0438128E0421B08F440E021E0628141
:104F700081810C941517E2E9F7E0438128E0420FA4
:104F800008F44FEF21E0628181810C941517E2E96A
:104F9000F7E0628128E0621B08F460E021E04381D1
:104FA00081810C941517E2E9F7E0628128E0620F35
:104FB00008F46FEF21E0438181810C941517E2E939
:104FC000F7E0818121E04381628188500C941517BC
:104FD000E2E9F7E0818121E043816281885F0C94FE
:104FE00015171F920F920FB60F9211242F933F9314
:104FF0004F935F936F937F938F939F93AF93BF93E1
:10500000CF93DF93EF93FF93D091E900DF7080910E
:10501000EC00C82FC17080FDC0E81092E9008091BB
:10502000F000877F8093F00078940E94091110921D
:10503000E9008091F00088608093F000CD2BCF7064
:10504000C093E900FF91EF91DF91CF91BF91AF91B4
:105050009F918F917F916F915F914F913F912F9190
:105060000F900FBE0F901F9018951F920F920FB6C2
:105070000F9211242F933F934F935F936F937F93DE
:105080008F939F93AF93BF93EF93FF938091E10032
:1050900082FF09C08091E20082FF05C08091E1009B
:1050A0008B7F8093E1008091DA0080FF24C08091A3
:1050B000D80080FF20C08091DA008E7F8093DA00D4
:1050C0008091D90080FFB2C088E189BD8AE189BDA5
:1050D00009B400FEFDCF81E08093C607809191075F
:1050E000811109C00E94D7040E94CA058091E20084
:1050F00084608093E2008091E10080FF17C080917E
:10510000E20080FF13C08091E2008E7F8093E20076
:105110008091E20080618093E2008091D8008062FB
:105120008093D80019BC85E08093C6078091E10088
:1051300084FF40C08091E20084FF3CC088E189BDCB
:105140008AE189BD89B5982F917080FFFBCF80914E
:10515000D8008F7D8093D8008091E1008F7E80936E
:10516000E1008091E2008F7E8093E2008091E20076
:1051700081608093E2008091BD07882309F45CC0C0
:1051800084E08093C6070E94F4100E945D090E948B
:105190000F191092980780919707882349F0809102
:1051A000920781608093920760E086950E94AA171B
:1051B0000E94DB138091E10083FF27C08091E20011
:1051C00083FF23C08091E100877F8093E10082E02C
:1051D0008093C6071092BD078091E1008E7F809377
:1051E000E1008091E2008E7F8093E2008091E200F6
:1051F00080618093E20042E060E080E00E949805D8
:105200008091F00088608093F000FF91EF91BF9152
:10521000AF919F918F917F916F915F914F913F914E
:105220002F910F900FBE0F901F90189519BC1092E0
:10523000C607109291075FCF8091E30087FD93E04E
:105240009093C607A0CFCDB7DEB7AA970FB6F89454
:10525000DEBF0FBECDBF84B7877F84BF0FB6F89483
:10526000A895809160008861809360001092600032
:105270000FBE80E890E00FB6F894809361009093A1
:1052800061000FBE85B7806885BF85B7806885BF20
:105290000E94D7040E94CA058091E2008460809336
:1052A000E20078948091C6078823A1F01091E9006C
:1052B0001F709091EC00892F817090FD80E8182B71
:1052C0001092E9008091E80083FD0E9409111F708F
:1052D0001093E90082E084BD93E095BD9AEF97BDFD
:1052E00080936E00ACE7B1E040E851E061E070E02F
:1052F0008D91E82FE295EF70F0E011A18F709B0186
:1053000001C0220F8A95EAF7922F9095912391A3DD
:1053100082A1822B82A34A175B0751F7A0E8B1E074
:105320004CE851E061E070E08D91E82FE295EF707C
:10533000F0E011A18F709B0101C0220F8A95EAF75E
:10534000922F9095912391A382A1822B82A34A1739
:105350005B0751F710923B0710923A0710928607AD
:105360001092850710923D0710923C071092880713
:105370001092870710923F0710923E0710928A07FB
:1053800010928907109241071092400710928C07E3
:1053900010928B070E94C60C8FE39CE90197F1F7EE
:1053A00000C000000E94C60C8091850780FF0BC0E2
:1053B00080E00E9435106FEF7FEF90E080E00E9468
:1053C00022310E94760B90E080E00E94FE308C3EFD
:1053D0009E4F11F00E944D1082E290E00E94F0304A
:1053E000823209F0D1C583E290E00E94F030823130
:1053F00009F0CAC584E290E00E94F030853009F0DF
:10540000C3C590E080E00E94FE308C3E9E4F11F0BC
:105410000E944D1082E090E00E94F0308093790766
:105420000E94950D909343078093420783E090E09C
:105430000E94F030682F70E090E080E00E945309F5
:1054400080914407811136C090E080E00E94FE30D8
:105450008C3E9E4F21F00E944D100E94E41088E087
:1054600090E00E94F83060939207709393078093C6
:105470009407909395076E7F71F40E94E41088E082
:1054800090E00E94F83060939207709393078093A6
:105490009407909395070E94CB09109283078091FF
:1054A000920780FF04C060E086950E94AA1781E001
:1054B0008093440767EB71E042E6842E47E0942E28
:1054C00025EA31E0EEEAF1E041E050E01191812F70
:1054D00082958F7090E0DC019196FC9091971F70FF
:1054E000E12E6A0101C0CC0C1A95EAF70C2D00954B
:1054F0000F2191960C93919792961C9192971C294B
:1055000092961C93D901FD909D010F2D02950F706D
:1055100010E0D8019196BC90BF2DBF70FB2E6A01A0
:1055200001C0CC0CBA95EAF7DC2CD094DB20D80172
:105530009196DC9291979296DC909297DC289296C5
:10554000DC92DC0190968C9190E002C09595879555
:10555000EA94E2F78170D80190960C9110E002C0B5
:1055600015950795FA94E2F790E000FD92E0892BFB
:10557000D4018D934D016E177F0709F0A7CF81E607
:1055800098E0909346078093450785E191E09093DA
:105590004807809347078091C607853009F428C2E1
:1055A0000E94C60CA5E8B7E0EAE7F7E010E000E0EB
:1055B000602F8D919D91419151914817590709F4A0
:1055C00079C24827592720E0EE24E394F12C6A01A0
:1055D000CE20DF20CD2809F467C229A36AA39C014D
:1055E0002E213F2191E0232B09F490E09BA30E9400
:1055F000CD078160782F9DA38CA349A15AA16BA1EF
:105600008DA10E948A22000F111FF801E658F84F61
:1056100080819181E826F926F182E08280918307DA
:10562000882309F441C080918207E0919207E695B2
:10563000E81BE0934C07823009F053C2F0E0EE57CC
:10564000F74FE4910E2F10E051EFE52E56E1F52EC5
:1056500080914D07882389F010924D070E94CD0755
:10566000980120953095820F931F90934B0780935C
:105670004A0710924F0710924E0780914A07909167
:105680004B070E94BE078017910770F0E0914A0710
:10569000F0914B070E0F1F1F10934B0700934A0703
:1056A0008AE497E0F701099539E5E32E37E0F32E18
:1056B00000E517E04CE9442E41E0542E55EA652EF2
:1056C00051E0752E6EEA862E61E0962E72E6A72EC8
:1056D00077E0B72E312CD501ED915D01EE0FEE0F85
:1056E000D4012D914D01A22FA295AF70B0E09096FC
:1056F0008C9190E02F7002C0959587952A95E2F7DE
:1057000081709927D3014D913D01A42FA295AF70CF
:10571000B0E090962C9130E04F7002C035952795FF
:105720004A95E2F7A9014170552720FF02C042E0E7
:1057300050E0842BE82BD5011197EC93D201CD904A
:105740002D01EF70F0E0E457FE4F8081F70190816A
:10575000890F80838C1544F0D8018C918F5F8C93D6
:1057600060E0832D0E9417230C2C000CDD08F7014C
:105770008081082E000C990B222733272C193D0914
:105780002817390744F0D8018C9181508C9361E03F
:10579000832D0E941723F7018081082E000C990B9E
:1057A000B6010E945D30D7018D937D0133940F5F68
:1057B0001F4FB9E03B128FCF86E0E2E7F7E0DE0152
:1057C000119601900D928A95E1F78091740790915E
:1057D0007507892B09F468C0809170079091710753
:1057E0000E94BE079C0190916F07992309F4E7C3BB
:1057F0002333310508F458C09F3F19F09F5F909301
:105800006F07109276071092770780917407181629
:1058100024F40E943607809374078091740787FFF1
:1058200005C00E94360781958093740780917507A3
:10583000181624F40E943607809375078091750727
:1058400087FF05C00E9436078195809375073091C8
:1058500074073323B1F020917507222391F045EBB3
:105860003403C0011124992309F4A7C1909374074C
:1058700045EB240390011124332309F4A2C1309392
:1058800075070E94D90780916D0790916E079093DC
:1058900071078093700786E0FE013196A2E7B7E0BA
:1058A00001900D928A95E1F78091760790917707A4
:1058B000892B09F468C080916B0790916C070E9456
:1058C000BE079C0190916F07992309F473C3253695
:1058D000310508F458C09F3F19F09F5F90936F0700
:1058E000109274071092750780917607181624F4A9
:1058F0000E941407809376078091760787FF05C082
:105900000E94140781958093760780917707181677
:1059100024F40E941407809377078091770787FF0C
:1059200005C00E9414078195809377073091760710
:105930003323B1F020917707222391F045EB340314
:10594000C0011124992309F440C19093760745EBD7
:10595000240390011124332309F43BC130937707CA
:105960000E94D90780916D0790916E0790936C0704
:1059700080936B0786E0FE013196A2E7B7E00190C5
:105980000D928A95E1F70E945D0990917807891739
:1059900031F00E945D09809378070E940F19809171
:1059A000C607843009F0F7CD83E08093E900809149
:1059B000E80082FFF0CD8091E80090E085FF06C00E
:1059C0000E94F604882309F408C191E08091E80060
:1059D0008B778093E800992309F4DDCDE981E150CC
:1059E000E33108F06CC1F0E0EB52FE4C0C947130E6
:1059F0008091C607843009F444C01092490788E1B9
:105A000090E020E40FB6F894A895809360000FBE54
:105A10002093600080E00E940F191092830780910C
:105A20009807811117C081E08093980780919207B1
:105A3000982F9170909397078E7F80939207BFEF76
:105A4000E0E7F2E0B150E040F040E1F700C00000D4
:105A50000E94F11383B7817F846083BF83B7816025
:105A600083BF7894889583B78E7F83BF0FB6F894F1
:105A7000A89580916000886180936000109260001A
:105A80000FBE8091BC07882309F485CD0E94C60C07
:105A9000E5E8F7E081919191892B09F05FC227E059
:105AA000ED38F207B9F777CD2F5FEE0CFF1C2C30E5
:105AB00009F08DCD0F5F1F4F0430110509F078CD2F
:105AC0008FEF8EA38FA318A60E94CD078160782F39
:105AD0009AA789A74EA15FA168A58AA50E948A22DC
